{
  "_format": "hh-sol-artifact-1",
  "contractName": "CustomERC20",
  "sourceName": "contracts/ERC20Token.sol",
  "abi": [
    {
      "inputs": [
        {
          "internalType": "address",
          "name": "initialOwner",
          "type": "address"
        }
      ],
      "stateMutability": "nonpayable",
      "type": "constructor"
    },
    {
      "inputs": [],
      "name": "ECDSAInvalidSignature",
      "type": "error"
    },
    {
      "inputs": [
        {
          "internalType": "uint256",
          "name": "length",
          "type": "uint256"
        }
      ],
      "name": "ECDSAInvalidSignatureLength",
      "type": "error"
    },
    {
      "inputs": [
        {
          "internalType": "bytes32",
          "name": "s",
          "type": "bytes32"
        }
      ],
      "name": "ECDSAInvalidSignatureS",
      "type": "error"
    },
    {
      "inputs": [
        {
          "internalType": "address",
          "name": "spender",
          "type": "address"
        },
        {
          "internalType": "uint256",
          "name": "allowance",
          "type": "uint256"
        },
        {
          "internalType": "uint256",
          "name": "needed",
          "type": "uint256"
        }
      ],
      "name": "ERC20InsufficientAllowance",
      "type": "error"
    },
    {
      "inputs": [
        {
          "internalType": "address",
          "name": "sender",
          "type": "address"
        },
        {
          "internalType": "uint256",
          "name": "balance",
          "type": "uint256"
        },
        {
          "internalType": "uint256",
          "name": "needed",
          "type": "uint256"
        }
      ],
      "name": "ERC20InsufficientBalance",
      "type": "error"
    },
    {
      "inputs": [
        {
          "internalType": "address",
          "name": "approver",
          "type": "address"
        }
      ],
      "name": "ERC20InvalidApprover",
      "type": "error"
    },
    {
      "inputs": [
        {
          "internalType": "address",
          "name": "receiver",
          "type": "address"
        }
      ],
      "name": "ERC20InvalidReceiver",
      "type": "error"
    },
    {
      "inputs": [
        {
          "internalType": "address",
          "name": "sender",
          "type": "address"
        }
      ],
      "name": "ERC20InvalidSender",
      "type": "error"
    },
    {
      "inputs": [
        {
          "internalType": "address",
          "name": "spender",
          "type": "address"
        }
      ],
      "name": "ERC20InvalidSpender",
      "type": "error"
    },
    {
      "inputs": [
        {
          "internalType": "uint256",
          "name": "deadline",
          "type": "uint256"
        }
      ],
      "name": "ERC2612ExpiredSignature",
      "type": "error"
    },
    {
      "inputs": [
        {
          "internalType": "address",
          "name": "signer",
          "type": "address"
        },
        {
          "internalType": "address",
          "name": "owner",
          "type": "address"
        }
      ],
      "name": "ERC2612InvalidSigner",
      "type": "error"
    },
    {
      "inputs": [
        {
          "internalType": "address",
          "name": "account",
          "type": "address"
        },
        {
          "internalType": "uint256",
          "name": "currentNonce",
          "type": "uint256"
        }
      ],
      "name": "InvalidAccountNonce",
      "type": "error"
    },
    {
      "inputs": [],
      "name": "InvalidShortString",
      "type": "error"
    },
    {
      "inputs": [
        {
          "internalType": "address",
          "name": "owner",
          "type": "address"
        }
      ],
      "name": "OwnableInvalidOwner",
      "type": "error"
    },
    {
      "inputs": [
        {
          "internalType": "address",
          "name": "account",
          "type": "address"
        }
      ],
      "name": "OwnableUnauthorizedAccount",
      "type": "error"
    },
    {
      "inputs": [
        {
          "internalType": "string",
          "name": "str",
          "type": "string"
        }
      ],
      "name": "StringTooLong",
      "type": "error"
    },
    {
      "anonymous": false,
      "inputs": [
        {
          "indexed": true,
          "internalType": "address",
          "name": "owner",
          "type": "address"
        },
        {
          "indexed": true,
          "internalType": "address",
          "name": "spender",
          "type": "address"
        },
        {
          "indexed": false,
          "internalType": "uint256",
          "name": "value",
          "type": "uint256"
        }
      ],
      "name": "Approval",
      "type": "event"
    },
    {
      "anonymous": false,
      "inputs": [],
      "name": "EIP712DomainChanged",
      "type": "event"
    },
    {
      "anonymous": false,
      "inputs": [
        {
          "indexed": true,
          "internalType": "address",
          "name": "previousOwner",
          "type": "address"
        },
        {
          "indexed": true,
          "internalType": "address",
          "name": "newOwner",
          "type": "address"
        }
      ],
      "name": "OwnershipTransferred",
      "type": "event"
    },
    {
      "anonymous": false,
      "inputs": [
        {
          "indexed": true,
          "internalType": "address",
          "name": "from",
          "type": "address"
        },
        {
          "indexed": true,
          "internalType": "address",
          "name": "to",
          "type": "address"
        },
        {
          "indexed": false,
          "internalType": "uint256",
          "name": "value",
          "type": "uint256"
        }
      ],
      "name": "Transfer",
      "type": "event"
    },
    {
      "inputs": [],
      "name": "DOMAIN_SEPARATOR",
      "outputs": [
        {
          "internalType": "bytes32",
          "name": "",
          "type": "bytes32"
        }
      ],
      "stateMutability": "view",
      "type": "function"
    },
    {
      "inputs": [
        {
          "internalType": "address",
          "name": "owner",
          "type": "address"
        },
        {
          "internalType": "address",
          "name": "spender",
          "type": "address"
        }
      ],
      "name": "allowance",
      "outputs": [
        {
          "internalType": "uint256",
          "name": "",
          "type": "uint256"
        }
      ],
      "stateMutability": "view",
      "type": "function"
    },
    {
      "inputs": [
        {
          "internalType": "address",
          "name": "spender",
          "type": "address"
        },
        {
          "internalType": "uint256",
          "name": "value",
          "type": "uint256"
        }
      ],
      "name": "approve",
      "outputs": [
        {
          "internalType": "bool",
          "name": "",
          "type": "bool"
        }
      ],
      "stateMutability": "nonpayable",
      "type": "function"
    },
    {
      "inputs": [
        {
          "internalType": "address",
          "name": "account",
          "type": "address"
        }
      ],
      "name": "balanceOf",
      "outputs": [
        {
          "internalType": "uint256",
          "name": "",
          "type": "uint256"
        }
      ],
      "stateMutability": "view",
      "type": "function"
    },
    {
      "inputs": [],
      "name": "buyTokens",
      "outputs": [],
      "stateMutability": "payable",
      "type": "function"
    },
    {
      "inputs": [],
      "name": "decimals",
      "outputs": [
        {
          "internalType": "uint8",
          "name": "",
          "type": "uint8"
        }
      ],
      "stateMutability": "view",
      "type": "function"
    },
    {
      "inputs": [],
      "name": "eip712Domain",
      "outputs": [
        {
          "internalType": "bytes1",
          "name": "fields",
          "type": "bytes1"
        },
        {
          "internalType": "string",
          "name": "name",
          "type": "string"
        },
        {
          "internalType": "string",
          "name": "version",
          "type": "string"
        },
        {
          "internalType": "uint256",
          "name": "chainId",
          "type": "uint256"
        },
        {
          "internalType": "address",
          "name": "verifyingContract",
          "type": "address"
        },
        {
          "internalType": "bytes32",
          "name": "salt",
          "type": "bytes32"
        },
        {
          "internalType": "uint256[]",
          "name": "extensions",
          "type": "uint256[]"
        }
      ],
      "stateMutability": "view",
      "type": "function"
    },
    {
      "inputs": [],
      "name": "name",
      "outputs": [
        {
          "internalType": "string",
          "name": "",
          "type": "string"
        }
      ],
      "stateMutability": "view",
      "type": "function"
    },
    {
      "inputs": [
        {
          "internalType": "address",
          "name": "owner",
          "type": "address"
        }
      ],
      "name": "nonces",
      "outputs": [
        {
          "internalType": "uint256",
          "name": "",
          "type": "uint256"
        }
      ],
      "stateMutability": "view",
      "type": "function"
    },
    {
      "inputs": [],
      "name": "owner",
      "outputs": [
        {
          "internalType": "address",
          "name": "",
          "type": "address"
        }
      ],
      "stateMutability": "view",
      "type": "function"
    },
    {
      "inputs": [
        {
          "internalType": "address",
          "name": "owner",
          "type": "address"
        },
        {
          "internalType": "address",
          "name": "spender",
          "type": "address"
        },
        {
          "internalType": "uint256",
          "name": "value",
          "type": "uint256"
        },
        {
          "internalType": "uint256",
          "name": "deadline",
          "type": "uint256"
        },
        {
          "internalType": "uint8",
          "name": "v",
          "type": "uint8"
        },
        {
          "internalType": "bytes32",
          "name": "r",
          "type": "bytes32"
        },
        {
          "internalType": "bytes32",
          "name": "s",
          "type": "bytes32"
        }
      ],
      "name": "permit",
      "outputs": [],
      "stateMutability": "nonpayable",
      "type": "function"
    },
    {
      "inputs": [],
      "name": "renounceOwnership",
      "outputs": [],
      "stateMutability": "nonpayable",
      "type": "function"
    },
    {
      "inputs": [],
      "name": "symbol",
      "outputs": [
        {
          "internalType": "string",
          "name": "",
          "type": "string"
        }
      ],
      "stateMutability": "view",
      "type": "function"
    },
    {
      "inputs": [],
      "name": "totalSupply",
      "outputs": [
        {
          "internalType": "uint256",
          "name": "",
          "type": "uint256"
        }
      ],
      "stateMutability": "view",
      "type": "function"
    },
    {
      "inputs": [
        {
          "internalType": "address",
          "name": "to",
          "type": "address"
        },
        {
          "internalType": "uint256",
          "name": "value",
          "type": "uint256"
        }
      ],
      "name": "transfer",
      "outputs": [
        {
          "internalType": "bool",
          "name": "",
          "type": "bool"
        }
      ],
      "stateMutability": "nonpayable",
      "type": "function"
    },
    {
      "inputs": [
        {
          "internalType": "address",
          "name": "from",
          "type": "address"
        },
        {
          "internalType": "address",
          "name": "to",
          "type": "address"
        },
        {
          "internalType": "uint256",
          "name": "value",
          "type": "uint256"
        }
      ],
      "name": "transferFrom",
      "outputs": [
        {
          "internalType": "bool",
          "name": "",
          "type": "bool"
        }
      ],
      "stateMutability": "nonpayable",
      "type": "function"
    },
    {
      "inputs": [
        {
          "internalType": "address",
          "name": "newOwner",
          "type": "address"
        }
      ],
      "name": "transferOwnership",
      "outputs": [],
      "stateMutability": "nonpayable",
      "type": "function"
    }
  ],
  "bytecode": "0x61016060405234801561001157600080fd5b506040516131f83803806131f883398181016040528101906100339190610795565b806040518060400160405280600b81526020017f437573746f6d4552433230000000000000000000000000000000000000000000815250806040518060400160405280600181526020017f31000000000000000000000000000000000000000000000000000000000000008152506040518060400160405280600b81526020017f437573746f6d45524332300000000000000000000000000000000000000000008152506040518060400160405280600381526020017f4352430000000000000000000000000000000000000000000000000000000000815250816003908161011c9190610a12565b50806004908161012c9190610a12565b50505061014360058361029960201b90919060201c565b610120818152505061015f60068261029960201b90919060201c565b6101408181525050818051906020012060e08181525050808051906020012061010081815250504660a0818152505061019c6102e960201b60201c565b608081815250503073ffffffffffffffffffffffffffffffffffffffff1660c08173ffffffffffffffffffffffffffffffffffffffff1681525050505050600073ffffffffffffffffffffffffffffffffffffffff168173ffffffffffffffffffffffffffffffffffffffff160361024c5760006040517f1e4fbdf70000000000000000000000000000000000000000000000000000000081526004016102439190610af3565b60405180910390fd5b61025b8161034460201b60201c565b506102933361026e61040a60201b60201c565b600a61027a9190610c7d565b620f42406102889190610cc8565b61041360201b60201c565b50610f49565b60006020835110156102bb576102b48361049b60201b60201c565b90506102e3565b826102cb8361050360201b60201c565b60000190816102da9190610a12565b5060ff60001b90505b92915050565b60007f8b73c3c69bb8fe3d512ecc4cf759cc79239f7b179b0ffacaa9a75d522b39400f60e051610100514630604051602001610329959493929190610d32565b60405160208183030381529060405280519060200120905090565b6000600860009054906101000a900473ffffffffffffffffffffffffffffffffffffffff16905081600860006101000a81548173ffffffffffffffffffffffffffffffffffffffff021916908373ffffffffffffffffffffffffffffffffffffffff1602179055508173ffffffffffffffffffffffffffffffffffffffff168173ffffffffffffffffffffffffffffffffffffffff167f8be0079c531659141344cd1fd0a4f28419497f9722a3daafe3b4186f6b6457e060405160405180910390a35050565b60006012905090565b600073ffffffffffffffffffffffffffffffffffffffff168273ffffffffffffffffffffffffffffffffffffffff16036104855760006040517fec442f0500000000000000000000000000000000000000000000000000000000815260040161047c9190610af3565b60405180910390fd5b6104976000838361050d60201b60201c565b5050565b600080829050601f815111156104e857826040517f305a27a90000000000000000000000000000000000000000000000000000000081526004016104df9190610e0a565b60405180910390fd5b8051816104f490610e5c565b60001c1760001b915050919050565b6000819050919050565b600073ffffffffffffffffffffffffffffffffffffffff168373ffffffffffffffffffffffffffffffffffffffff160361055f5780600260008282546105539190610ec3565b92505081905550610632565b60008060008573ffffffffffffffffffffffffffffffffffffffff1673ffffffffffffffffffffffffffffffffffffffff168152602001908152602001600020549050818110156105eb578381836040517fe450d38c0000000000000000000000000000000000000000000000000000000081526004016105e293929190610ef7565b60405180910390fd5b8181036000808673ffffffffffffffffffffffffffffffffffffffff1673ffffffffffffffffffffffffffffffffffffffff16815260200190815260200160002081905550505b600073ffffffffffffffffffffffffffffffffffffffff168273ffffffffffffffffffffffffffffffffffffffff160361067b57806002600082825403925050819055506106c8565b806000808473ffffffffffffffffffffffffffffffffffffffff1673ffffffffffffffffffffffffffffffffffffffff168152602001908152602001600020600082825401925050819055505b8173ffffffffffffffffffffffffffffffffffffffff168373ffffffffffffffffffffffffffffffffffffffff167fddf252ad1be2c89b69c2b068fc378daa952ba7f163c4a11628f55a4df523b3ef836040516107259190610f2e565b60405180910390a3505050565b600080fd5b600073ffffffffffffffffffffffffffffffffffffffff82169050919050565b600061076282610737565b9050919050565b61077281610757565b811461077d57600080fd5b50565b60008151905061078f81610769565b92915050565b6000602082840312156107ab576107aa610732565b5b60006107b984828501610780565b91505092915050565b600081519050919050565b7f4e487b7100000000000000000000000000000000000000000000000000000000600052604160045260246000fd5b7f4e487b7100000000000000000000000000000000000000000000000000000000600052602260045260246000fd5b6000600282049050600182168061084357607f821691505b602082108103610856576108556107fc565b5b50919050565b60008190508160005260206000209050919050565b60006020601f8301049050919050565b600082821b905092915050565b6000600883026108be7fffffffffffffffffffffffffffffffffffffffffffffffffffffffffffffffff82610881565b6108c88683610881565b95508019841693508086168417925050509392505050565b6000819050919050565b6000819050919050565b600061090f61090a610905846108e0565b6108ea565b6108e0565b9050919050565b6000819050919050565b610929836108f4565b61093d61093582610916565b84845461088e565b825550505050565b600090565b610952610945565b61095d818484610920565b505050565b5b818110156109815761097660008261094a565b600181019050610963565b5050565b601f8211156109c6576109978161085c565b6109a084610871565b810160208510156109af578190505b6109c36109bb85610871565b830182610962565b50505b505050565b600082821c905092915050565b60006109e9600019846008026109cb565b1980831691505092915050565b6000610a0283836109d8565b9150826002028217905092915050565b610a1b826107c2565b67ffffffffffffffff811115610a3457610a336107cd565b5b610a3e825461082b565b610a49828285610985565b600060209050601f831160018114610a7c5760008415610a6a578287015190505b610a7485826109f6565b865550610adc565b601f198416610a8a8661085c565b60005b82811015610ab257848901518255600182019150602085019450602081019050610a8d565b86831015610acf5784890151610acb601f8916826109d8565b8355505b6001600288020188555050505b505050505050565b610aed81610757565b82525050565b6000602082019050610b086000830184610ae4565b92915050565b7f4e487b7100000000000000000000000000000000000000000000000000000000600052601160045260246000fd5b60008160011c9050919050565b6000808291508390505b6001851115610b9457808604811115610b7057610b6f610b0e565b5b6001851615610b7f5780820291505b8081029050610b8d85610b3d565b9450610b54565b94509492505050565b600082610bad5760019050610c69565b81610bbb5760009050610c69565b8160018114610bd15760028114610bdb57610c0a565b6001915050610c69565b60ff841115610bed57610bec610b0e565b5b8360020a915084821115610c0457610c03610b0e565b5b50610c69565b5060208310610133831016604e8410600b8410161715610c3f5782820a905083811115610c3a57610c39610b0e565b5b610c69565b610c4c8484846001610b4a565b92509050818404811115610c6357610c62610b0e565b5b81810290505b9392505050565b600060ff82169050919050565b6000610c88826108e0565b9150610c9383610c70565b9250610cc07fffffffffffffffffffffffffffffffffffffffffffffffffffffffffffffffff8484610b9d565b905092915050565b6000610cd3826108e0565b9150610cde836108e0565b9250828202610cec816108e0565b91508282048414831517610d0357610d02610b0e565b5b5092915050565b6000819050919050565b610d1d81610d0a565b82525050565b610d2c816108e0565b82525050565b600060a082019050610d476000830188610d14565b610d546020830187610d14565b610d616040830186610d14565b610d6e6060830185610d23565b610d7b6080830184610ae4565b9695505050505050565b600082825260208201905092915050565b60005b83811015610db4578082015181840152602081019050610d99565b60008484015250505050565b6000601f19601f8301169050919050565b6000610ddc826107c2565b610de68185610d85565b9350610df6818560208601610d96565b610dff81610dc0565b840191505092915050565b60006020820190508181036000830152610e248184610dd1565b905092915050565b600081519050919050565b6000819050602082019050919050565b6000610e538251610d0a565b80915050919050565b6000610e6782610e2c565b82610e7184610e37565b9050610e7c81610e47565b92506020821015610ebc57610eb77fffffffffffffffffffffffffffffffffffffffffffffffffffffffffffffffff83602003600802610881565b831692505b5050919050565b6000610ece826108e0565b9150610ed9836108e0565b9250828201905080821115610ef157610ef0610b0e565b5b92915050565b6000606082019050610f0c6000830186610ae4565b610f196020830185610d23565b610f266040830184610d23565b949350505050565b6000602082019050610f436000830184610d23565b92915050565b60805160a05160c05160e051610100516101205161014051612255610fa36000396000610d9201526000610d57015260006111980152600061117701526000610b0501526000610b5b01526000610b8401526122556000f3fe6080604052600436106100fe5760003560e01c80637ecebe0011610095578063a9059cbb11610064578063a9059cbb14610341578063d0febe4c1461037e578063d505accf14610388578063dd62ed3e146103b1578063f2fde38b146103ee576100fe565b80637ecebe001461027d57806384b0196e146102ba5780638da5cb5b146102eb57806395d89b4114610316576100fe565b8063313ce567116100d1578063313ce567146101d35780633644e515146101fe57806370a0823114610229578063715018a614610266576100fe565b806306fdde0314610103578063095ea7b31461012e57806318160ddd1461016b57806323b872dd14610196575b600080fd5b34801561010f57600080fd5b50610118610417565b60405161012591906118aa565b60405180910390f35b34801561013a57600080fd5b5061015560048036038101906101509190611965565b6104a9565b60405161016291906119c0565b60405180910390f35b34801561017757600080fd5b506101806104cc565b60405161018d91906119ea565b60405180910390f35b3480156101a257600080fd5b506101bd60048036038101906101b89190611a05565b6104d6565b6040516101ca91906119c0565b60405180910390f35b3480156101df57600080fd5b506101e8610505565b6040516101f59190611a74565b60405180910390f35b34801561020a57600080fd5b5061021361050e565b6040516102209190611aa8565b60405180910390f35b34801561023557600080fd5b50610250600480360381019061024b9190611ac3565b61051d565b60405161025d91906119ea565b60405180910390f35b34801561027257600080fd5b5061027b610565565b005b34801561028957600080fd5b506102a4600480360381019061029f9190611ac3565b610579565b6040516102b191906119ea565b60405180910390f35b3480156102c657600080fd5b506102cf61058b565b6040516102e29796959493929190611bf8565b60405180910390f35b3480156102f757600080fd5b50610300610635565b60405161030d9190611c7c565b60405180910390f35b34801561032257600080fd5b5061032b61065f565b60405161033891906118aa565b60405180910390f35b34801561034d57600080fd5b5061036860048036038101906103639190611965565b6106f1565b60405161037591906119c0565b60405180910390f35b610386610714565b005b34801561039457600080fd5b506103af60048036038101906103aa9190611cef565b6107bd565b005b3480156103bd57600080fd5b506103d860048036038101906103d39190611d91565b610905565b6040516103e591906119ea565b60405180910390f35b3480156103fa57600080fd5b5061041560048036038101906104109190611ac3565b61098c565b005b60606003805461042690611e00565b80601f016020809104026020016040519081016040528092919081815260200182805461045290611e00565b801561049f5780601f106104745761010080835404028352916020019161049f565b820191906000526020600020905b81548152906001019060200180831161048257829003601f168201915b5050505050905090565b6000806104b4610a12565b90506104c1818585610a1a565b600191505092915050565b6000600254905090565b6000806104e1610a12565b90506104ee858285610a2c565b6104f9858585610ac0565b60019150509392505050565b60006012905090565b6000610518610b01565b905090565b60008060008373ffffffffffffffffffffffffffffffffffffffff1673ffffffffffffffffffffffffffffffffffffffff168152602001908152602001600020549050919050565b61056d610bb8565b6105776000610c3f565b565b600061058482610d05565b9050919050565b60006060806000806000606061059f610d4e565b6105a7610d89565b46306000801b600067ffffffffffffffff8111156105c8576105c7611e31565b5b6040519080825280602002602001820160405280156105f65781602001602082028036833780820191505090505b507f0f00000000000000000000000000000000000000000000000000000000000000959493929190965096509650965096509650965090919293949596565b6000600860009054906101000a900473ffffffffffffffffffffffffffffffffffffffff16905090565b60606004805461066e90611e00565b80601f016020809104026020016040519081016040528092919081815260200182805461069a90611e00565b80156106e75780601f106106bc576101008083540402835291602001916106e7565b820191906000526020600020905b8154815290600101906020018083116106ca57829003601f168201915b5050505050905090565b6000806106fc610a12565b9050610709818585610ac0565b600191505092915050565b60003411610757576040517f08c379a000000000000000000000000000000000000000000000000000000000815260040161074e90611eac565b60405180910390fd5b34610768610763610635565b61051d565b10156107a9576040517f08c379a00000000000000000000000000000000000000000000000000000000081526004016107a090611f3e565b60405180910390fd5b6107bb6107b4610635565b3334610dc4565b565b8342111561080257836040517f627913020000000000000000000000000000000000000000000000000000000081526004016107f991906119ea565b60405180910390fd5b60007f6e71edae12b1b97f4d1f60370fef10105fa2faae0126114a169c64845d6126c98888886108318c610eb8565b8960405160200161084796959493929190611f5e565b604051602081830303815290604052805190602001209050600061086a82610f0f565b9050600061087a82878787610f29565b90508973ffffffffffffffffffffffffffffffffffffffff168173ffffffffffffffffffffffffffffffffffffffff16146108ee57808a6040517f4b800e460000000000000000000000000000000000000000000000000000000081526004016108e5929190611fbf565b60405180910390fd5b6108f98a8a8a610a1a565b50505050505050505050565b6000600160008473ffffffffffffffffffffffffffffffffffffffff1673ffffffffffffffffffffffffffffffffffffffff16815260200190815260200160002060008373ffffffffffffffffffffffffffffffffffffffff1673ffffffffffffffffffffffffffffffffffffffff16815260200190815260200160002054905092915050565b610994610bb8565b600073ffffffffffffffffffffffffffffffffffffffff168173ffffffffffffffffffffffffffffffffffffffff1603610a065760006040517f1e4fbdf70000000000000000000000000000000000000000000000000000000081526004016109fd9190611c7c565b60405180910390fd5b610a0f81610c3f565b50565b600033905090565b610a278383836001610f59565b505050565b6000610a388484610905565b90507fffffffffffffffffffffffffffffffffffffffffffffffffffffffffffffffff8114610aba5781811015610aaa578281836040517ffb8f41b2000000000000000000000000000000000000000000000000000000008152600401610aa193929190611fe8565b60405180910390fd5b610ab984848484036000610f59565b5b50505050565b6000610acb82611130565b905060008183610adb919061204e565b9050610aef85610ae9610635565b84610dc4565b610afa858583610dc4565b5050505050565b60007f000000000000000000000000000000000000000000000000000000000000000073ffffffffffffffffffffffffffffffffffffffff163073ffffffffffffffffffffffffffffffffffffffff16148015610b7d57507f000000000000000000000000000000000000000000000000000000000000000046145b15610baa577f00000000000000000000000000000000000000000000000000000000000000009050610bb5565b610bb2611152565b90505b90565b610bc0610a12565b73ffffffffffffffffffffffffffffffffffffffff16610bde610635565b73ffffffffffffffffffffffffffffffffffffffff1614610c3d57610c01610a12565b6040517f118cdaa7000000000000000000000000000000000000000000000000000000008152600401610c349190611c7c565b60405180910390fd5b565b6000600860009054906101000a900473ffffffffffffffffffffffffffffffffffffffff16905081600860006101000a81548173ffffffffffffffffffffffffffffffffffffffff021916908373ffffffffffffffffffffffffffffffffffffffff1602179055508173ffffffffffffffffffffffffffffffffffffffff168173ffffffffffffffffffffffffffffffffffffffff167f8be0079c531659141344cd1fd0a4f28419497f9722a3daafe3b4186f6b6457e060405160405180910390a35050565b6000600760008373ffffffffffffffffffffffffffffffffffffffff1673ffffffffffffffffffffffffffffffffffffffff168152602001908152602001600020549050919050565b6060610d8460057f00000000000000000000000000000000000000000000000000000000000000006111e890919063ffffffff16565b905090565b6060610dbf60067f00000000000000000000000000000000000000000000000000000000000000006111e890919063ffffffff16565b905090565b600073ffffffffffffffffffffffffffffffffffffffff168373ffffffffffffffffffffffffffffffffffffffff1603610e365760006040517f96c6fd1e000000000000000000000000000000000000000000000000000000008152600401610e2d9190611c7c565b60405180910390fd5b600073ffffffffffffffffffffffffffffffffffffffff168273ffffffffffffffffffffffffffffffffffffffff1603610ea85760006040517fec442f05000000000000000000000000000000000000000000000000000000008152600401610e9f9190611c7c565b60405180910390fd5b610eb3838383611298565b505050565b6000600760008373ffffffffffffffffffffffffffffffffffffffff1673ffffffffffffffffffffffffffffffffffffffff1681526020019081526020016000206000815480929190600101919050559050919050565b6000610f22610f1c610b01565b836114bd565b9050919050565b600080600080610f3b888888886114fe565b925092509250610f4b82826115f2565b829350505050949350505050565b600073ffffffffffffffffffffffffffffffffffffffff168473ffffffffffffffffffffffffffffffffffffffff1603610fcb5760006040517fe602df05000000000000000000000000000000000000000000000000000000008152600401610fc29190611c7c565b60405180910390fd5b600073ffffffffffffffffffffffffffffffffffffffff168373ffffffffffffffffffffffffffffffffffffffff160361103d5760006040517f94280d620000000000000000000000000000000000000000000000000000000081526004016110349190611c7c565b60405180910390fd5b81600160008673ffffffffffffffffffffffffffffffffffffffff1673ffffffffffffffffffffffffffffffffffffffff16815260200190815260200160002060008573ffffffffffffffffffffffffffffffffffffffff1673ffffffffffffffffffffffffffffffffffffffff16815260200190815260200160002081905550801561112a578273ffffffffffffffffffffffffffffffffffffffff168473ffffffffffffffffffffffffffffffffffffffff167f8c5be1e5ebec7d5bd14f71427d1e84f3dd0314c0f7b2291e5b200ac8c7c3b9258460405161112191906119ea565b60405180910390a35b50505050565b600060646005836111419190612082565b61114b91906120f3565b9050919050565b60007f8b73c3c69bb8fe3d512ecc4cf759cc79239f7b179b0ffacaa9a75d522b39400f7f00000000000000000000000000000000000000000000000000000000000000007f000000000000000000000000000000000000000000000000000000000000000046306040516020016111cd959493929190612124565b60405160208183030381529060405280519060200120905090565b606060ff60001b8314611205576111fe83611756565b9050611292565b81805461121190611e00565b80601f016020809104026020016040519081016040528092919081815260200182805461123d90611e00565b801561128a5780601f1061125f5761010080835404028352916020019161128a565b820191906000526020600020905b81548152906001019060200180831161126d57829003601f168201915b505050505090505b92915050565b600073ffffffffffffffffffffffffffffffffffffffff168373ffffffffffffffffffffffffffffffffffffffff16036112ea5780600260008282546112de9190612177565b925050819055506113bd565b60008060008573ffffffffffffffffffffffffffffffffffffffff1673ffffffffffffffffffffffffffffffffffffffff16815260200190815260200160002054905081811015611376578381836040517fe450d38c00000000000000000000000000000000000000000000000000000000815260040161136d93929190611fe8565b60405180910390fd5b8181036000808673ffffffffffffffffffffffffffffffffffffffff1673ffffffffffffffffffffffffffffffffffffffff16815260200190815260200160002081905550505b600073ffffffffffffffffffffffffffffffffffffffff168273ffffffffffffffffffffffffffffffffffffffff16036114065780600260008282540392505081905550611453565b806000808473ffffffffffffffffffffffffffffffffffffffff1673ffffffffffffffffffffffffffffffffffffffff168152602001908152602001600020600082825401925050819055505b8173ffffffffffffffffffffffffffffffffffffffff168373ffffffffffffffffffffffffffffffffffffffff167fddf252ad1be2c89b69c2b068fc378daa952ba7f163c4a11628f55a4df523b3ef836040516114b091906119ea565b60405180910390a3505050565b60006040517f190100000000000000000000000000000000000000000000000000000000000081528360028201528260228201526042812091505092915050565b60008060007f7fffffffffffffffffffffffffffffff5d576e7357a4501ddfe92f46681b20a08460001c111561153e5760006003859250925092506115e8565b60006001888888886040516000815260200160405260405161156394939291906121ab565b6020604051602081039080840390855afa158015611585573d6000803e3d6000fd5b505050602060405103519050600073ffffffffffffffffffffffffffffffffffffffff168173ffffffffffffffffffffffffffffffffffffffff16036115d957600060016000801b935093509350506115e8565b8060008060001b935093509350505b9450945094915050565b60006003811115611606576116056121f0565b5b826003811115611619576116186121f0565b5b03156117525760016003811115611633576116326121f0565b5b826003811115611646576116456121f0565b5b0361167d576040517ff645eedf00000000000000000000000000000000000000000000000000000000815260040160405180910390fd5b60026003811115611691576116906121f0565b5b8260038111156116a4576116a36121f0565b5b036116e9578060001c6040517ffce698f70000000000000000000000000000000000000000000000000000000081526004016116e091906119ea565b60405180910390fd5b6003808111156116fc576116fb6121f0565b5b82600381111561170f5761170e6121f0565b5b0361175157806040517fd78bce0c0000000000000000000000000000000000000000000000000000000081526004016117489190611aa8565b60405180910390fd5b5b5050565b60606000611763836117ca565b90506000602067ffffffffffffffff81111561178257611781611e31565b5b6040519080825280601f01601f1916602001820160405280156117b45781602001600182028036833780820191505090505b5090508181528360208201528092505050919050565b60008060ff8360001c169050601f811115611811576040517fb3512b0c00000000000000000000000000000000000000000000000000000000815260040160405180910390fd5b80915050919050565b600081519050919050565b600082825260208201905092915050565b60005b83811015611854578082015181840152602081019050611839565b60008484015250505050565b6000601f19601f8301169050919050565b600061187c8261181a565b6118868185611825565b9350611896818560208601611836565b61189f81611860565b840191505092915050565b600060208201905081810360008301526118c48184611871565b905092915050565b600080fd5b600073ffffffffffffffffffffffffffffffffffffffff82169050919050565b60006118fc826118d1565b9050919050565b61190c816118f1565b811461191757600080fd5b50565b60008135905061192981611903565b92915050565b6000819050919050565b6119428161192f565b811461194d57600080fd5b50565b60008135905061195f81611939565b92915050565b6000806040838503121561197c5761197b6118cc565b5b600061198a8582860161191a565b925050602061199b85828601611950565b9150509250929050565b60008115159050919050565b6119ba816119a5565b82525050565b60006020820190506119d560008301846119b1565b92915050565b6119e48161192f565b82525050565b60006020820190506119ff60008301846119db565b92915050565b600080600060608486031215611a1e57611a1d6118cc565b5b6000611a2c8682870161191a565b9350506020611a3d8682870161191a565b9250506040611a4e86828701611950565b9150509250925092565b600060ff82169050919050565b611a6e81611a58565b82525050565b6000602082019050611a896000830184611a65565b92915050565b6000819050919050565b611aa281611a8f565b82525050565b6000602082019050611abd6000830184611a99565b92915050565b600060208284031215611ad957611ad86118cc565b5b6000611ae78482850161191a565b91505092915050565b60007fff0000000000000000000000000000000000000000000000000000000000000082169050919050565b611b2581611af0565b82525050565b611b34816118f1565b82525050565b600081519050919050565b600082825260208201905092915050565b6000819050602082019050919050565b611b6f8161192f565b82525050565b6000611b818383611b66565b60208301905092915050565b6000602082019050919050565b6000611ba582611b3a565b611baf8185611b45565b9350611bba83611b56565b8060005b83811015611beb578151611bd28882611b75565b9750611bdd83611b8d565b925050600181019050611bbe565b5085935050505092915050565b600060e082019050611c0d600083018a611b1c565b8181036020830152611c1f8189611871565b90508181036040830152611c338188611871565b9050611c4260608301876119db565b611c4f6080830186611b2b565b611c5c60a0830185611a99565b81810360c0830152611c6e8184611b9a565b905098975050505050505050565b6000602082019050611c916000830184611b2b565b92915050565b611ca081611a58565b8114611cab57600080fd5b50565b600081359050611cbd81611c97565b92915050565b611ccc81611a8f565b8114611cd757600080fd5b50565b600081359050611ce981611cc3565b92915050565b600080600080600080600060e0888a031215611d0e57611d0d6118cc565b5b6000611d1c8a828b0161191a565b9750506020611d2d8a828b0161191a565b9650506040611d3e8a828b01611950565b9550506060611d4f8a828b01611950565b9450506080611d608a828b01611cae565b93505060a0611d718a828b01611cda565b92505060c0611d828a828b01611cda565b91505092959891949750929550565b60008060408385031215611da857611da76118cc565b5b6000611db68582860161191a565b9250506020611dc78582860161191a565b9150509250929050565b7f4e487b7100000000000000000000000000000000000000000000000000000000600052602260045260246000fd5b60006002820490506001821680611e1857607f821691505b602082108103611e2b57611e2a611dd1565b5b50919050565b7f4e487b7100000000000000000000000000000000000000000000000000000000600052604160045260246000fd5b7f4e6f742076616c696420746f6b656e732076616c756500000000000000000000600082015250565b6000611e96601683611825565b9150611ea182611e60565b602082019050919050565b60006020820190508181036000830152611ec581611e89565b9050919050565b7f4e6f7420656e6f75676820746f6b656e7320617661696c61626c6520666f722060008201527f73616c6500000000000000000000000000000000000000000000000000000000602082015250565b6000611f28602483611825565b9150611f3382611ecc565b604082019050919050565b60006020820190508181036000830152611f5781611f1b565b9050919050565b600060c082019050611f736000830189611a99565b611f806020830188611b2b565b611f8d6040830187611b2b565b611f9a60608301866119db565b611fa760808301856119db565b611fb460a08301846119db565b979650505050505050565b6000604082019050611fd46000830185611b2b565b611fe16020830184611b2b565b9392505050565b6000606082019050611ffd6000830186611b2b565b61200a60208301856119db565b61201760408301846119db565b949350505050565b7f4e487b7100000000000000000000000000000000000000000000000000000000600052601160045260246000fd5b60006120598261192f565b91506120648361192f565b925082820390508181111561207c5761207b61201f565b5b92915050565b600061208d8261192f565b91506120988361192f565b92508282026120a68161192f565b915082820484148315176120bd576120bc61201f565b5b5092915050565b7f4e487b7100000000000000000000000000000000000000000000000000000000600052601260045260246000fd5b60006120fe8261192f565b91506121098361192f565b925082612119576121186120c4565b5b828204905092915050565b600060a0820190506121396000830188611a99565b6121466020830187611a99565b6121536040830186611a99565b61216060608301856119db565b61216d6080830184611b2b565b9695505050505050565b60006121828261192f565b915061218d8361192f565b92508282019050808211156121a5576121a461201f565b5b92915050565b60006080820190506121c06000830187611a99565b6121cd6020830186611a65565b6121da6040830185611a99565b6121e76060830184611a99565b95945050505050565b7f4e487b7100000000000000000000000000000000000000000000000000000000600052602160045260246000fdfea2646970667358221220c06ab3d5a08177ee9b83cb2980bd2a008c856a5e12bb7d164a6c376338227a4c64736f6c634300081b0033",
  "linkReferences": {},
  "deployedLinkReferences": {}
}