{
  "_format": "hh-sol-artifact-1",
  "contractName": "CustomERC721",
  "sourceName": "contracts/ERC721Token.sol",
  "abi": [
    {
      "inputs": [
        {
          "internalType": "address",
          "name": "initialOwner",
          "type": "address"
        }
      ],
      "stateMutability": "nonpayable",
      "type": "constructor"
    },
    {
      "inputs": [
        {
          "internalType": "address",
          "name": "sender",
          "type": "address"
        },
        {
          "internalType": "uint256",
          "name": "tokenId",
          "type": "uint256"
        },
        {
          "internalType": "address",
          "name": "owner",
          "type": "address"
        }
      ],
      "name": "ERC721IncorrectOwner",
      "type": "error"
    },
    {
      "inputs": [
        {
          "internalType": "address",
          "name": "operator",
          "type": "address"
        },
        {
          "internalType": "uint256",
          "name": "tokenId",
          "type": "uint256"
        }
      ],
      "name": "ERC721InsufficientApproval",
      "type": "error"
    },
    {
      "inputs": [
        {
          "internalType": "address",
          "name": "approver",
          "type": "address"
        }
      ],
      "name": "ERC721InvalidApprover",
      "type": "error"
    },
    {
      "inputs": [
        {
          "internalType": "address",
          "name": "operator",
          "type": "address"
        }
      ],
      "name": "ERC721InvalidOperator",
      "type": "error"
    },
    {
      "inputs": [
        {
          "internalType": "address",
          "name": "owner",
          "type": "address"
        }
      ],
      "name": "ERC721InvalidOwner",
      "type": "error"
    },
    {
      "inputs": [
        {
          "internalType": "address",
          "name": "receiver",
          "type": "address"
        }
      ],
      "name": "ERC721InvalidReceiver",
      "type": "error"
    },
    {
      "inputs": [
        {
          "internalType": "address",
          "name": "sender",
          "type": "address"
        }
      ],
      "name": "ERC721InvalidSender",
      "type": "error"
    },
    {
      "inputs": [
        {
          "internalType": "uint256",
          "name": "tokenId",
          "type": "uint256"
        }
      ],
      "name": "ERC721NonexistentToken",
      "type": "error"
    },
    {
      "inputs": [
        {
          "internalType": "address",
          "name": "owner",
          "type": "address"
        }
      ],
      "name": "OwnableInvalidOwner",
      "type": "error"
    },
    {
      "inputs": [
        {
          "internalType": "address",
          "name": "account",
          "type": "address"
        }
      ],
      "name": "OwnableUnauthorizedAccount",
      "type": "error"
    },
    {
      "anonymous": false,
      "inputs": [
        {
          "indexed": true,
          "internalType": "address",
          "name": "owner",
          "type": "address"
        },
        {
          "indexed": true,
          "internalType": "address",
          "name": "approved",
          "type": "address"
        },
        {
          "indexed": true,
          "internalType": "uint256",
          "name": "tokenId",
          "type": "uint256"
        }
      ],
      "name": "Approval",
      "type": "event"
    },
    {
      "anonymous": false,
      "inputs": [
        {
          "indexed": true,
          "internalType": "address",
          "name": "owner",
          "type": "address"
        },
        {
          "indexed": true,
          "internalType": "address",
          "name": "operator",
          "type": "address"
        },
        {
          "indexed": false,
          "internalType": "bool",
          "name": "approved",
          "type": "bool"
        }
      ],
      "name": "ApprovalForAll",
      "type": "event"
    },
    {
      "anonymous": false,
      "inputs": [
        {
          "indexed": true,
          "internalType": "address",
          "name": "previousOwner",
          "type": "address"
        },
        {
          "indexed": true,
          "internalType": "address",
          "name": "newOwner",
          "type": "address"
        }
      ],
      "name": "OwnershipTransferred",
      "type": "event"
    },
    {
      "anonymous": false,
      "inputs": [
        {
          "indexed": true,
          "internalType": "address",
          "name": "from",
          "type": "address"
        },
        {
          "indexed": true,
          "internalType": "address",
          "name": "to",
          "type": "address"
        },
        {
          "indexed": true,
          "internalType": "uint256",
          "name": "tokenId",
          "type": "uint256"
        }
      ],
      "name": "Transfer",
      "type": "event"
    },
    {
      "inputs": [
        {
          "internalType": "address",
          "name": "to",
          "type": "address"
        },
        {
          "internalType": "uint256",
          "name": "tokenId",
          "type": "uint256"
        }
      ],
      "name": "approve",
      "outputs": [],
      "stateMutability": "nonpayable",
      "type": "function"
    },
    {
      "inputs": [
        {
          "internalType": "address",
          "name": "owner",
          "type": "address"
        }
      ],
      "name": "balanceOf",
      "outputs": [
        {
          "internalType": "uint256",
          "name": "",
          "type": "uint256"
        }
      ],
      "stateMutability": "view",
      "type": "function"
    },
    {
      "inputs": [
        {
          "internalType": "uint256",
          "name": "tokenId",
          "type": "uint256"
        }
      ],
      "name": "getApproved",
      "outputs": [
        {
          "internalType": "address",
          "name": "",
          "type": "address"
        }
      ],
      "stateMutability": "view",
      "type": "function"
    },
    {
      "inputs": [
        {
          "internalType": "address",
          "name": "owner",
          "type": "address"
        },
        {
          "internalType": "address",
          "name": "operator",
          "type": "address"
        }
      ],
      "name": "isApprovedForAll",
      "outputs": [
        {
          "internalType": "bool",
          "name": "",
          "type": "bool"
        }
      ],
      "stateMutability": "view",
      "type": "function"
    },
    {
      "inputs": [],
      "name": "name",
      "outputs": [
        {
          "internalType": "string",
          "name": "",
          "type": "string"
        }
      ],
      "stateMutability": "view",
      "type": "function"
    },
    {
      "inputs": [],
      "name": "owner",
      "outputs": [
        {
          "internalType": "address",
          "name": "",
          "type": "address"
        }
      ],
      "stateMutability": "view",
      "type": "function"
    },
    {
      "inputs": [
        {
          "internalType": "uint256",
          "name": "tokenId",
          "type": "uint256"
        }
      ],
      "name": "ownerOf",
      "outputs": [
        {
          "internalType": "address",
          "name": "",
          "type": "address"
        }
      ],
      "stateMutability": "view",
      "type": "function"
    },
    {
      "inputs": [],
      "name": "renounceOwnership",
      "outputs": [],
      "stateMutability": "nonpayable",
      "type": "function"
    },
    {
      "inputs": [
        {
          "internalType": "address",
          "name": "to",
          "type": "address"
        },
        {
          "internalType": "uint256",
          "name": "tokenId",
          "type": "uint256"
        }
      ],
      "name": "safeMint",
      "outputs": [],
      "stateMutability": "nonpayable",
      "type": "function"
    },
    {
      "inputs": [
        {
          "internalType": "address",
          "name": "from",
          "type": "address"
        },
        {
          "internalType": "address",
          "name": "to",
          "type": "address"
        },
        {
          "internalType": "uint256",
          "name": "tokenId",
          "type": "uint256"
        }
      ],
      "name": "safeTransferFrom",
      "outputs": [],
      "stateMutability": "nonpayable",
      "type": "function"
    },
    {
      "inputs": [
        {
          "internalType": "address",
          "name": "from",
          "type": "address"
        },
        {
          "internalType": "address",
          "name": "to",
          "type": "address"
        },
        {
          "internalType": "uint256",
          "name": "tokenId",
          "type": "uint256"
        },
        {
          "internalType": "bytes",
          "name": "data",
          "type": "bytes"
        }
      ],
      "name": "safeTransferFrom",
      "outputs": [],
      "stateMutability": "nonpayable",
      "type": "function"
    },
    {
      "inputs": [
        {
          "internalType": "address",
          "name": "operator",
          "type": "address"
        },
        {
          "internalType": "bool",
          "name": "approved",
          "type": "bool"
        }
      ],
      "name": "setApprovalForAll",
      "outputs": [],
      "stateMutability": "nonpayable",
      "type": "function"
    },
    {
      "inputs": [
        {
          "internalType": "string",
          "name": "baseUri",
          "type": "string"
        }
      ],
      "name": "setBaseURI",
      "outputs": [],
      "stateMutability": "nonpayable",
      "type": "function"
    },
    {
      "inputs": [
        {
          "internalType": "bytes4",
          "name": "interfaceId",
          "type": "bytes4"
        }
      ],
      "name": "supportsInterface",
      "outputs": [
        {
          "internalType": "bool",
          "name": "",
          "type": "bool"
        }
      ],
      "stateMutability": "view",
      "type": "function"
    },
    {
      "inputs": [],
      "name": "symbol",
      "outputs": [
        {
          "internalType": "string",
          "name": "",
          "type": "string"
        }
      ],
      "stateMutability": "view",
      "type": "function"
    },
    {
      "inputs": [
        {
          "internalType": "uint256",
          "name": "tokenId",
          "type": "uint256"
        }
      ],
      "name": "tokenURI",
      "outputs": [
        {
          "internalType": "string",
          "name": "",
          "type": "string"
        }
      ],
      "stateMutability": "view",
      "type": "function"
    },
    {
      "inputs": [
        {
          "internalType": "address",
          "name": "from",
          "type": "address"
        },
        {
          "internalType": "address",
          "name": "to",
          "type": "address"
        },
        {
          "internalType": "uint256",
          "name": "tokenId",
          "type": "uint256"
        }
      ],
      "name": "transferFrom",
      "outputs": [],
      "stateMutability": "nonpayable",
      "type": "function"
    },
    {
      "inputs": [
        {
          "internalType": "address",
          "name": "newOwner",
          "type": "address"
        }
      ],
      "name": "transferOwnership",
      "outputs": [],
      "stateMutability": "nonpayable",
      "type": "function"
    }
  ],
  "bytecode": "0x608060405234801561001057600080fd5b50604051612a91380380612a9183398181016040528101906100329190610272565b806040518060400160405280600c81526020017f437573746f6d45524337323100000000000000000000000000000000000000008152506040518060400160405280600481526020017f434552430000000000000000000000000000000000000000000000000000000081525081600090816100ae91906104ef565b5080600190816100be91906104ef565b505050600073ffffffffffffffffffffffffffffffffffffffff168173ffffffffffffffffffffffffffffffffffffffff16036101335760006040517f1e4fbdf700000000000000000000000000000000000000000000000000000000815260040161012a91906105d0565b60405180910390fd5b6101428161014960201b60201c565b50506105eb565b6000600660009054906101000a900473ffffffffffffffffffffffffffffffffffffffff16905081600660006101000a81548173ffffffffffffffffffffffffffffffffffffffff021916908373ffffffffffffffffffffffffffffffffffffffff1602179055508173ffffffffffffffffffffffffffffffffffffffff168173ffffffffffffffffffffffffffffffffffffffff167f8be0079c531659141344cd1fd0a4f28419497f9722a3daafe3b4186f6b6457e060405160405180910390a35050565b600080fd5b600073ffffffffffffffffffffffffffffffffffffffff82169050919050565b600061023f82610214565b9050919050565b61024f81610234565b811461025a57600080fd5b50565b60008151905061026c81610246565b92915050565b6000602082840312156102885761028761020f565b5b60006102968482850161025d565b91505092915050565b600081519050919050565b7f4e487b7100000000000000000000000000000000000000000000000000000000600052604160045260246000fd5b7f4e487b7100000000000000000000000000000000000000000000000000000000600052602260045260246000fd5b6000600282049050600182168061032057607f821691505b602082108103610333576103326102d9565b5b50919050565b60008190508160005260206000209050919050565b60006020601f8301049050919050565b600082821b905092915050565b60006008830261039b7fffffffffffffffffffffffffffffffffffffffffffffffffffffffffffffffff8261035e565b6103a5868361035e565b95508019841693508086168417925050509392505050565b6000819050919050565b6000819050919050565b60006103ec6103e76103e2846103bd565b6103c7565b6103bd565b9050919050565b6000819050919050565b610406836103d1565b61041a610412826103f3565b84845461036b565b825550505050565b600090565b61042f610422565b61043a8184846103fd565b505050565b5b8181101561045e57610453600082610427565b600181019050610440565b5050565b601f8211156104a35761047481610339565b61047d8461034e565b8101602085101561048c578190505b6104a06104988561034e565b83018261043f565b50505b505050565b600082821c905092915050565b60006104c6600019846008026104a8565b1980831691505092915050565b60006104df83836104b5565b9150826002028217905092915050565b6104f88261029f565b67ffffffffffffffff811115610511576105106102aa565b5b61051b8254610308565b610526828285610462565b600060209050601f8311600181146105595760008415610547578287015190505b61055185826104d3565b8655506105b9565b601f19841661056786610339565b60005b8281101561058f5784890151825560018201915060208501945060208101905061056a565b868310156105ac57848901516105a8601f8916826104b5565b8355505b6001600288020188555050505b505050505050565b6105ca81610234565b82525050565b60006020820190506105e560008301846105c1565b92915050565b612497806105fa6000396000f3fe608060405234801561001057600080fd5b50600436106101165760003560e01c8063715018a6116100a2578063a22cb46511610071578063a22cb465146102cb578063b88d4fde146102e7578063c87b56dd14610303578063e985e9c514610333578063f2fde38b1461036357610116565b8063715018a6146102695780638da5cb5b1461027357806395d89b4114610291578063a1448194146102af57610116565b806323b872dd116100e957806323b872dd146101b557806342842e0e146101d157806355f804b3146101ed5780636352211e1461020957806370a082311461023957610116565b806301ffc9a71461011b57806306fdde031461014b578063081812fc14610169578063095ea7b314610199575b600080fd5b61013560048036038101906101309190611979565b61037f565b60405161014291906119c1565b60405180910390f35b610153610461565b6040516101609190611a6c565b60405180910390f35b610183600480360381019061017e9190611ac4565b6104f3565b6040516101909190611b32565b60405180910390f35b6101b360048036038101906101ae9190611b79565b61050f565b005b6101cf60048036038101906101ca9190611bb9565b610525565b005b6101eb60048036038101906101e69190611bb9565b610627565b005b61020760048036038101906102029190611d41565b610647565b005b610223600480360381019061021e9190611ac4565b610662565b6040516102309190611b32565b60405180910390f35b610253600480360381019061024e9190611d8a565b610674565b6040516102609190611dc6565b60405180910390f35b61027161072e565b005b61027b610742565b6040516102889190611b32565b60405180910390f35b61029961076c565b6040516102a69190611a6c565b60405180910390f35b6102c960048036038101906102c49190611b79565b6107fe565b005b6102e560048036038101906102e09190611e0d565b610814565b005b61030160048036038101906102fc9190611eee565b61082a565b005b61031d60048036038101906103189190611ac4565b610847565b60405161032a9190611a6c565b60405180910390f35b61034d60048036038101906103489190611f71565b6108b0565b60405161035a91906119c1565b60405180910390f35b61037d60048036038101906103789190611d8a565b610944565b005b60007f80ac58cd000000000000000000000000000000000000000000000000000000007bffffffffffffffffffffffffffffffffffffffffffffffffffffffff1916827bffffffffffffffffffffffffffffffffffffffffffffffffffffffff1916148061044a57507f5b5e139f000000000000000000000000000000000000000000000000000000007bffffffffffffffffffffffffffffffffffffffffffffffffffffffff1916827bffffffffffffffffffffffffffffffffffffffffffffffffffffffff1916145b8061045a5750610459826109ca565b5b9050919050565b60606000805461047090611fe0565b80601f016020809104026020016040519081016040528092919081815260200182805461049c90611fe0565b80156104e95780601f106104be576101008083540402835291602001916104e9565b820191906000526020600020905b8154815290600101906020018083116104cc57829003601f168201915b5050505050905090565b60006104fe82610a34565b5061050882610abc565b9050919050565b610521828261051c610af9565b610b01565b5050565b600073ffffffffffffffffffffffffffffffffffffffff168273ffffffffffffffffffffffffffffffffffffffff16036105975760006040517f64a0ae9200000000000000000000000000000000000000000000000000000000815260040161058e9190611b32565b60405180910390fd5b60006105ab83836105a6610af9565b610b13565b90508373ffffffffffffffffffffffffffffffffffffffff168173ffffffffffffffffffffffffffffffffffffffff1614610621578382826040517f64283d7b00000000000000000000000000000000000000000000000000000000815260040161061893929190612011565b60405180910390fd5b50505050565b6106428383836040518060200160405280600081525061082a565b505050565b61064f610d2d565b806007908161065e91906121f4565b5050565b600061066d82610a34565b9050919050565b60008073ffffffffffffffffffffffffffffffffffffffff168273ffffffffffffffffffffffffffffffffffffffff16036106e75760006040517f89c62b640000000000000000000000000000000000000000000000000000000081526004016106de9190611b32565b60405180910390fd5b600360008373ffffffffffffffffffffffffffffffffffffffff1673ffffffffffffffffffffffffffffffffffffffff168152602001908152602001600020549050919050565b610736610d2d565b6107406000610db4565b565b6000600660009054906101000a900473ffffffffffffffffffffffffffffffffffffffff16905090565b60606001805461077b90611fe0565b80601f01602080910402602001604051908101604052809291908181526020018280546107a790611fe0565b80156107f45780601f106107c9576101008083540402835291602001916107f4565b820191906000526020600020905b8154815290600101906020018083116107d757829003601f168201915b5050505050905090565b610806610d2d565b6108108282610e7a565b5050565b61082661081f610af9565b8383610e98565b5050565b610835848484610525565b61084184848484611007565b50505050565b606061085282610a34565b50600061085d6111be565b9050600081511161087d57604051806020016040528060008152506108a8565b8061088784611250565b604051602001610898929190612302565b6040516020818303038152906040525b915050919050565b6000600560008473ffffffffffffffffffffffffffffffffffffffff1673ffffffffffffffffffffffffffffffffffffffff16815260200190815260200160002060008373ffffffffffffffffffffffffffffffffffffffff1673ffffffffffffffffffffffffffffffffffffffff16815260200190815260200160002060009054906101000a900460ff16905092915050565b61094c610d2d565b600073ffffffffffffffffffffffffffffffffffffffff168173ffffffffffffffffffffffffffffffffffffffff16036109be5760006040517f1e4fbdf70000000000000000000000000000000000000000000000000000000081526004016109b59190611b32565b60405180910390fd5b6109c781610db4565b50565b60007f01ffc9a7000000000000000000000000000000000000000000000000000000007bffffffffffffffffffffffffffffffffffffffffffffffffffffffff1916827bffffffffffffffffffffffffffffffffffffffffffffffffffffffff1916149050919050565b600080610a408361131e565b9050600073ffffffffffffffffffffffffffffffffffffffff168173ffffffffffffffffffffffffffffffffffffffff1603610ab357826040517f7e273289000000000000000000000000000000000000000000000000000000008152600401610aaa9190611dc6565b60405180910390fd5b80915050919050565b60006004600083815260200190815260200160002060009054906101000a900473ffffffffffffffffffffffffffffffffffffffff169050919050565b600033905090565b610b0e838383600161135b565b505050565b600080610b1f8461131e565b9050600073ffffffffffffffffffffffffffffffffffffffff168373ffffffffffffffffffffffffffffffffffffffff1614610b6157610b60818486611520565b5b600073ffffffffffffffffffffffffffffffffffffffff168173ffffffffffffffffffffffffffffffffffffffff1614610bf257610ba360008560008061135b565b6001600360008373ffffffffffffffffffffffffffffffffffffffff1673ffffffffffffffffffffffffffffffffffffffff168152602001908152602001600020600082825403925050819055505b600073ffffffffffffffffffffffffffffffffffffffff168573ffffffffffffffffffffffffffffffffffffffff1614610c75576001600360008773ffffffffffffffffffffffffffffffffffffffff1673ffffffffffffffffffffffffffffffffffffffff168152602001908152602001600020600082825401925050819055505b846002600086815260200190815260200160002060006101000a81548173ffffffffffffffffffffffffffffffffffffffff021916908373ffffffffffffffffffffffffffffffffffffffff160217905550838573ffffffffffffffffffffffffffffffffffffffff168273ffffffffffffffffffffffffffffffffffffffff167fddf252ad1be2c89b69c2b068fc378daa952ba7f163c4a11628f55a4df523b3ef60405160405180910390a4809150509392505050565b610d35610af9565b73ffffffffffffffffffffffffffffffffffffffff16610d53610742565b73ffffffffffffffffffffffffffffffffffffffff1614610db257610d76610af9565b6040517f118cdaa7000000000000000000000000000000000000000000000000000000008152600401610da99190611b32565b60405180910390fd5b565b6000600660009054906101000a900473ffffffffffffffffffffffffffffffffffffffff16905081600660006101000a81548173ffffffffffffffffffffffffffffffffffffffff021916908373ffffffffffffffffffffffffffffffffffffffff1602179055508173ffffffffffffffffffffffffffffffffffffffff168173ffffffffffffffffffffffffffffffffffffffff167f8be0079c531659141344cd1fd0a4f28419497f9722a3daafe3b4186f6b6457e060405160405180910390a35050565b610e948282604051806020016040528060008152506115e4565b5050565b600073ffffffffffffffffffffffffffffffffffffffff168273ffffffffffffffffffffffffffffffffffffffff1603610f0957816040517f5b08ba18000000000000000000000000000000000000000000000000000000008152600401610f009190611b32565b60405180910390fd5b80600560008573ffffffffffffffffffffffffffffffffffffffff1673ffffffffffffffffffffffffffffffffffffffff16815260200190815260200160002060008473ffffffffffffffffffffffffffffffffffffffff1673ffffffffffffffffffffffffffffffffffffffff16815260200190815260200160002060006101000a81548160ff0219169083151502179055508173ffffffffffffffffffffffffffffffffffffffff168373ffffffffffffffffffffffffffffffffffffffff167f17307eab39ab6107e8899845ad3d59bd9653f200f220920489ca2b5937696c3183604051610ffa91906119c1565b60405180910390a3505050565b60008373ffffffffffffffffffffffffffffffffffffffff163b11156111b8578273ffffffffffffffffffffffffffffffffffffffff1663150b7a0261104b610af9565b8685856040518563ffffffff1660e01b815260040161106d949392919061237b565b6020604051808303816000875af19250505080156110a957506040513d601f19601f820116820180604052508101906110a691906123dc565b60015b61112d573d80600081146110d9576040519150601f19603f3d011682016040523d82523d6000602084013e6110de565b606091505b50600081510361112557836040517f64a0ae9200000000000000000000000000000000000000000000000000000000815260040161111c9190611b32565b60405180910390fd5b805181602001fd5b63150b7a0260e01b7bffffffffffffffffffffffffffffffffffffffffffffffffffffffff1916817bffffffffffffffffffffffffffffffffffffffffffffffffffffffff1916146111b657836040517f64a0ae920000000000000000000000000000000000000000000000000000000081526004016111ad9190611b32565b60405180910390fd5b505b50505050565b6060600780546111cd90611fe0565b80601f01602080910402602001604051908101604052809291908181526020018280546111f990611fe0565b80156112465780601f1061121b57610100808354040283529160200191611246565b820191906000526020600020905b81548152906001019060200180831161122957829003601f168201915b5050505050905090565b60606000600161125f84611600565b01905060008167ffffffffffffffff81111561127e5761127d611c16565b5b6040519080825280601f01601f1916602001820160405280156112b05781602001600182028036833780820191505090505b509050600082602001820190505b600115611313578080600190039150507f3031323334353637383961626364656600000000000000000000000000000000600a86061a8153600a858161130757611306612409565b5b049450600085036112be575b819350505050919050565b60006002600083815260200190815260200160002060009054906101000a900473ffffffffffffffffffffffffffffffffffffffff169050919050565b80806113945750600073ffffffffffffffffffffffffffffffffffffffff168273ffffffffffffffffffffffffffffffffffffffff1614155b156114c85760006113a484610a34565b9050600073ffffffffffffffffffffffffffffffffffffffff168373ffffffffffffffffffffffffffffffffffffffff161415801561140f57508273ffffffffffffffffffffffffffffffffffffffff168173ffffffffffffffffffffffffffffffffffffffff1614155b8015611422575061142081846108b0565b155b1561146457826040517fa9fbf51f00000000000000000000000000000000000000000000000000000000815260040161145b9190611b32565b60405180910390fd5b81156114c657838573ffffffffffffffffffffffffffffffffffffffff168273ffffffffffffffffffffffffffffffffffffffff167f8c5be1e5ebec7d5bd14f71427d1e84f3dd0314c0f7b2291e5b200ac8c7c3b92560405160405180910390a45b505b836004600085815260200190815260200160002060006101000a81548173ffffffffffffffffffffffffffffffffffffffff021916908373ffffffffffffffffffffffffffffffffffffffff16021790555050505050565b61152b838383611753565b6115df57600073ffffffffffffffffffffffffffffffffffffffff168373ffffffffffffffffffffffffffffffffffffffff16036115a057806040517f7e2732890000000000000000000000000000000000000000000000000000000081526004016115979190611dc6565b60405180910390fd5b81816040517f177e802f0000000000000000000000000000000000000000000000000000000081526004016115d6929190612438565b60405180910390fd5b505050565b6115ee8383611814565b6115fb6000848484611007565b505050565b600080600090507a184f03e93ff9f4daa797ed6e38ed64bf6a1f010000000000000000831061165e577a184f03e93ff9f4daa797ed6e38ed64bf6a1f010000000000000000838161165457611653612409565b5b0492506040810190505b6d04ee2d6d415b85acef8100000000831061169b576d04ee2d6d415b85acef8100000000838161169157611690612409565b5b0492506020810190505b662386f26fc1000083106116ca57662386f26fc1000083816116c0576116bf612409565b5b0492506010810190505b6305f5e10083106116f3576305f5e10083816116e9576116e8612409565b5b0492506008810190505b612710831061171857612710838161170e5761170d612409565b5b0492506004810190505b6064831061173b576064838161173157611730612409565b5b0492506002810190505b600a831061174a576001810190505b80915050919050565b60008073ffffffffffffffffffffffffffffffffffffffff168373ffffffffffffffffffffffffffffffffffffffff161415801561180b57508273ffffffffffffffffffffffffffffffffffffffff168473ffffffffffffffffffffffffffffffffffffffff1614806117cc57506117cb84846108b0565b5b8061180a57508273ffffffffffffffffffffffffffffffffffffffff166117f283610abc565b73ffffffffffffffffffffffffffffffffffffffff16145b5b90509392505050565b600073ffffffffffffffffffffffffffffffffffffffff168273ffffffffffffffffffffffffffffffffffffffff16036118865760006040517f64a0ae9200000000000000000000000000000000000000000000000000000000815260040161187d9190611b32565b60405180910390fd5b600061189483836000610b13565b9050600073ffffffffffffffffffffffffffffffffffffffff168173ffffffffffffffffffffffffffffffffffffffff16146119085760006040517f73c6ac6e0000000000000000000000000000000000000000000000000000000081526004016118ff9190611b32565b60405180910390fd5b505050565b6000604051905090565b600080fd5b600080fd5b60007fffffffff0000000000000000000000000000000000000000000000000000000082169050919050565b61195681611921565b811461196157600080fd5b50565b6000813590506119738161194d565b92915050565b60006020828403121561198f5761198e611917565b5b600061199d84828501611964565b91505092915050565b60008115159050919050565b6119bb816119a6565b82525050565b60006020820190506119d660008301846119b2565b92915050565b600081519050919050565b600082825260208201905092915050565b60005b83811015611a165780820151818401526020810190506119fb565b60008484015250505050565b6000601f19601f8301169050919050565b6000611a3e826119dc565b611a4881856119e7565b9350611a588185602086016119f8565b611a6181611a22565b840191505092915050565b60006020820190508181036000830152611a868184611a33565b905092915050565b6000819050919050565b611aa181611a8e565b8114611aac57600080fd5b50565b600081359050611abe81611a98565b92915050565b600060208284031215611ada57611ad9611917565b5b6000611ae884828501611aaf565b91505092915050565b600073ffffffffffffffffffffffffffffffffffffffff82169050919050565b6000611b1c82611af1565b9050919050565b611b2c81611b11565b82525050565b6000602082019050611b476000830184611b23565b92915050565b611b5681611b11565b8114611b6157600080fd5b50565b600081359050611b7381611b4d565b92915050565b60008060408385031215611b9057611b8f611917565b5b6000611b9e85828601611b64565b9250506020611baf85828601611aaf565b9150509250929050565b600080600060608486031215611bd257611bd1611917565b5b6000611be086828701611b64565b9350506020611bf186828701611b64565b9250506040611c0286828701611aaf565b9150509250925092565b600080fd5b600080fd5b7f4e487b7100000000000000000000000000000000000000000000000000000000600052604160045260246000fd5b611c4e82611a22565b810181811067ffffffffffffffff82111715611c6d57611c6c611c16565b5b80604052505050565b6000611c8061190d565b9050611c8c8282611c45565b919050565b600067ffffffffffffffff821115611cac57611cab611c16565b5b611cb582611a22565b9050602081019050919050565b82818337600083830152505050565b6000611ce4611cdf84611c91565b611c76565b905082815260208101848484011115611d0057611cff611c11565b5b611d0b848285611cc2565b509392505050565b600082601f830112611d2857611d27611c0c565b5b8135611d38848260208601611cd1565b91505092915050565b600060208284031215611d5757611d56611917565b5b600082013567ffffffffffffffff811115611d7557611d7461191c565b5b611d8184828501611d13565b91505092915050565b600060208284031215611da057611d9f611917565b5b6000611dae84828501611b64565b91505092915050565b611dc081611a8e565b82525050565b6000602082019050611ddb6000830184611db7565b92915050565b611dea816119a6565b8114611df557600080fd5b50565b600081359050611e0781611de1565b92915050565b60008060408385031215611e2457611e23611917565b5b6000611e3285828601611b64565b9250506020611e4385828601611df8565b9150509250929050565b600067ffffffffffffffff821115611e6857611e67611c16565b5b611e7182611a22565b9050602081019050919050565b6000611e91611e8c84611e4d565b611c76565b905082815260208101848484011115611ead57611eac611c11565b5b611eb8848285611cc2565b509392505050565b600082601f830112611ed557611ed4611c0c565b5b8135611ee5848260208601611e7e565b91505092915050565b60008060008060808587031215611f0857611f07611917565b5b6000611f1687828801611b64565b9450506020611f2787828801611b64565b9350506040611f3887828801611aaf565b925050606085013567ffffffffffffffff811115611f5957611f5861191c565b5b611f6587828801611ec0565b91505092959194509250565b60008060408385031215611f8857611f87611917565b5b6000611f9685828601611b64565b9250506020611fa785828601611b64565b9150509250929050565b7f4e487b7100000000000000000000000000000000000000000000000000000000600052602260045260246000fd5b60006002820490506001821680611ff857607f821691505b60208210810361200b5761200a611fb1565b5b50919050565b60006060820190506120266000830186611b23565b6120336020830185611db7565b6120406040830184611b23565b949350505050565b60008190508160005260206000209050919050565b60006020601f8301049050919050565b600082821b905092915050565b6000600883026120aa7fffffffffffffffffffffffffffffffffffffffffffffffffffffffffffffffff8261206d565b6120b4868361206d565b95508019841693508086168417925050509392505050565b6000819050919050565b60006120f16120ec6120e784611a8e565b6120cc565b611a8e565b9050919050565b6000819050919050565b61210b836120d6565b61211f612117826120f8565b84845461207a565b825550505050565b600090565b612134612127565b61213f818484612102565b505050565b5b818110156121635761215860008261212c565b600181019050612145565b5050565b601f8211156121a85761217981612048565b6121828461205d565b81016020851015612191578190505b6121a561219d8561205d565b830182612144565b50505b505050565b600082821c905092915050565b60006121cb600019846008026121ad565b1980831691505092915050565b60006121e483836121ba565b9150826002028217905092915050565b6121fd826119dc565b67ffffffffffffffff81111561221657612215611c16565b5b6122208254611fe0565b61222b828285612167565b600060209050601f83116001811461225e576000841561224c578287015190505b61225685826121d8565b8655506122be565b601f19841661226c86612048565b60005b828110156122945784890151825560018201915060208501945060208101905061226f565b868310156122b157848901516122ad601f8916826121ba565b8355505b6001600288020188555050505b505050505050565b600081905092915050565b60006122dc826119dc565b6122e681856122c6565b93506122f68185602086016119f8565b80840191505092915050565b600061230e82856122d1565b915061231a82846122d1565b91508190509392505050565b600081519050919050565b600082825260208201905092915050565b600061234d82612326565b6123578185612331565b93506123678185602086016119f8565b61237081611a22565b840191505092915050565b60006080820190506123906000830187611b23565b61239d6020830186611b23565b6123aa6040830185611db7565b81810360608301526123bc8184612342565b905095945050505050565b6000815190506123d68161194d565b92915050565b6000602082840312156123f2576123f1611917565b5b6000612400848285016123c7565b91505092915050565b7f4e487b7100000000000000000000000000000000000000000000000000000000600052601260045260246000fd5b600060408201905061244d6000830185611b23565b61245a6020830184611db7565b939250505056fea2646970667358221220d8512aa2f73cfd637040e943fb63631db6da0dfc00d5c565c8199c983be2f61f64736f6c634300081b0033",
  "linkReferences": {},
  "deployedLinkReferences": {}
}